:020000040800F2
:10000000F0050020DD010008B9450008A709000837
:100010005D440008E50400083559000800000000B0
:100020000000000000000000000000000750000871
:100030005106000800000000714B000871510008D3
:10004000F7010008F7010008F7010008F7010008B0
:10005000F7010008F7010008F7010008F7010008A0
:10006000F7010008F7010008F7010008F701000890
:10007000F7010008F7010008F7010008F701000880
:10008000F7010008F7010008F7010008F701000870
:10009000F7010008F7010008F701000895060008BD
:1000A000F7010008F7010008F7010008F701000850
:1000B000C5520008E5520008F7010008F7010008E2
:1000C000F7010008F7010008F7010008F701000830
:1000D000F701000899570008F7010008F701000828
:1000E000F7010008F7010008F7010008F701000810
:1000F000F7010008F7010008F7010008F701000800
:10010000F7010008F7010008F7010008F7010008EF
:10011000F7010008F701000809530008F70100087B
:10012000F7010008F7010008F7010008F7010008CF
:1001300000F002F800F042F80AA090E8000C8244B7
:100140008344AAF10107DA4501D100F037F8AFF294
:10015000090EBAE80F0013F0010F18BFFB1A43F0A5
:1001600001031847507F0000707F0000103A24BF41
:1001700078C878C1FAD8520724BF30C830C144BF0C
:1001800004680C607047000000230024002500264E
:10019000103A28BF78C1FBD8520728BF30C148BFEA
:1001A0000B607047642900F07980782900F0B280F4
:1001B000002070471FB51FBD10B510BD00F062F9DB
:1001C0001146FFF7F7FF05F033FC00F080F903B4A8
:1001D000FFF7F2FF03BC05F0CBFB000009488047A6
:1001E00009480047FEE7FEE7FEE7FEE7FEE7FEE719
:1001F000FEE7FEE7FEE7FEE704480549034A054B34
:10020000704700007551000831010008F00100201E
:10021000F0050020F0010020704700000FB40449F1
:1002200010B503AA029800F0FFF810BC5DF814FBAB
:10023000900000202DE9F0410E4604460020206287
:100240002046E168884730B3252805D0D4E901214C
:100250009047206A401CF2E7E16820460027884763
:10026000050018D0A5F14100192802D820354FF417
:1002700000673246294620462760FFF793FF40B1CA
:10028000012804D0F61D26F007060836D8E7361DEB
:10029000D6E72846DAE7206ABDE8F0812DE9F0418B
:1002A0000646002410687529314616A510D0AFF314
:1002B0000080002802DA404213A507E031688A076F
:1002C00001D512A502E0490704D511A5012401E0DA
:1002D000AFF3008000210A2206F1240709E0B0FBF9
:1002E000F2FCB0FBF2F302FB1C00303078541846ED
:1002F000491C0028F3D123462A463046BDE8F04188
:1003000000F038B8000000002D0000002B000000B5
:100310002000000070B504460D4621461068AFF37A
:1003200000802188090502D50F4A7A4402E00E4A6E
:100330007A440E32002104F1240305E000F00F0698
:100340000009965D5E54491C0028F7D120780023EF
:10035000000704D5702D02D009B1022311322046C6
:10036000BDE8704000F006B85C7D00007047704743
:10037000704770472DE9F0470D469946924604466E
:1003800000F124080168880604D5E06921F0100115
:10039000216000E00120A84201DD471B00E00027AA
:1003A000A1697A1902EB0900081AA0612078C00639
:1003B00002D42046AFF30080002608E0D4E90121F2
:1003C0001AF806009047206A401C761C20624E45B1
:1003D000F4DB2078C0060AD52046AFF3008006E0A3
:1003E000D4E9012130209047206A401C2062381E49
:1003F000A7F10107F4DC07E0D4E9012118F80500B2
:100400009047206A401C2062281EA5F10105F3DCFC
:100410002046AFF300802078000602D50220BDE818
:10042000F0870120FBE70000074B70B50D467B44C9
:1004300000F011F80446284600F020F810B14FF003
:10044000FF3070BD204670BDE755000001694A1CB1
:1004500002610878704700B58FB0CDE90131002105
:10046000059105497944CDE9031011466846FFF727
:10047000E1FE0FB000BD0000E5FFFFFF007B00F0D4
:1004800080007047754600F029F8AE4605006946C1
:10049000534620F00700854618B020B5FFF7ACFEA4
:1004A000BDE820404FF000064FF000074FF0000875
:1004B0004FF0000B21F00701AC46ACE8C009ACE8F6
:1004C000C009ACE8C009ACE8C0098D4670470446D5
:1004D000AFF300802046FFF77AFE00000048704727
:1004E00090010020FEE7000010B503780A789342DF
:1004F00016D94A78934213D282780C79A2420FD946
:100500004C79A2420CD240788C78A04208D9C978A4
:10051000884205D203490B7048708A70012010BDD3
:10052000002010BD500000202DE9FC5F00259946F9
:1005300014460F468046060016D0B9B2B0B26A46DD
:1005400004F0FCFB01A9684604F082FB214601A8E7
:10055000FFF7CAFF00B96D1C2169A0680844B5EB1C
:10056000501F01D8761EE8D1B3460026454615E057
:10057000B9B2A8B26A4604F0E1FB01A9684604F0EA
:1005800067FB214601A8FFF7AFFF00B9761C216980
:10059000A0680844B6EB501F02D86D1CF02DE7D3BD
:1005A000AA4600263D0017D0A9B21FFA88F06A4675
:1005B00004F0C4FB01A9684604F04AFB214601A8E7
:1005C000FFF792FF00B9761C6169E0680844B6EB5A
:1005D000501F01D86D1EE7D12E46002516E0B9B296
:1005E0001FFA88F06A4604F0A9FB01A9684604F0E6
:1005F0002FFB214601A8FFF777FF00B96D1C616949
:10060000E0680844B5EB501F03D87F1CB7F5A07F06
:10061000E5D30BEB0A004108F019C9F800104108B6
:10062000AAEB0B00C9E90110B91BC9F80C10A268AC
:1006300090420BD92269904208D2E068814205D9E4
:100640006069814202D20120BDE8FC9F0020FBE7E7
:1006500070473EB50821002000F00CF94FF480707F
:10066000002400908DF8044008208DF80500012535
:100670008DF80650684600F051F817208DF80800F4
:100680008DF809408DF80A408DF80B5002A803F050
:1006900095FF3EBD70B54FF48074204600F02EF8F3
:1006A000012819D10F490A780F4D00201AB10A7894
:1006B000012A0AD010E00D4BC3F898010122C3F8BB
:1006C0009821C5F88C210A7006E0C5F88C0102203B
:1006D00008704878401C48702046BDE8704000F023
:1006E00007B8000034000020008021420080224230
:1006F000014908607047000014040140064A0146A1
:1007000000201268044B0A4014331B680B4202D0CD
:10071000002A00D0012070470004014030B51A4A79
:100720008379016853B313688B431360111D0B6801
:100730000468A3430B60017911440B6804682343E8
:100740000B60114B083319680468A14319601C1D24
:1007500021680568A94321604179102905D0114419
:100760000A68006802430A6030BD196802681143D4
:100770001960216800680143216030BD0079104490
:1007800002688A43026030BD000401408000A0F18D
:10079000C0400029016802D041F0010101E0024A95
:1007A0001140016070470000FEFF0F0010B5D0E956
:1007B00001121143D0E903231A4311434269114343
:1007C00082691143C2691143026A1143426A1143AB
:1007D000826A1143C26A1143026B1143026892009C
:1007E000A2F1C04211608168082907D1016889001F
:1007F000A1F1C0410A6842F040020A60416BD1E9B0
:10080000002342EA03128B688C891B0243EA0443EB
:100810001A430B8A42EA03520B7D896942EA03625A
:100820000A4301688900A1F1C0414A60C16AB1F57B
:10083000804F08D000686FF070418000A0F1C04088
:10084000C0F8041110BD816BD1E9002342EA031204
:100850008B680C8A1B0243EA04531A430B7D896997
:1008600042EA036200680A438000A0F1C040C0F879
:10087000042110BD10B58A0721F003040649120FA8
:1008800021440F238C6893409C438C608B6890407C
:1008900003438B6010BD000000000140F0B5CC7830
:1008A000002204F00F03E40601D58C7823430C7872
:1008B0004FF00F0C14F0FF0F4FF0010E1BD0056826
:1008C0000E880EFA02F42640A64210D196000CFAC9
:1008D00006F725EA070703FA06F5CE783D43282EEA
:1008E00002D0482E02D002E0446100E00461521CB4
:1008F000082AE5D305600A88FF2A1CD9446800222B
:1009000002F108060EFA06F50E882E40AE420ED110
:1009100096000CFA06F7BC4303FA06F7CE783C4380
:10092000282E00D14561CE78482E00D10561521C99
:10093000082AE5D34460F0BDF0B5144C002801DA74
:10094000E36900E06368450D2E0185B2C0F30157ED
:10095000B540C0F30342032F05D0C6020AD50326D3
:100960009640B34307E023F07062636823F070633E
:10097000636002E0AB4343F0706201B12A43002898
:1009800001DAE261F0BD6260F0BD000000000140EC
:100990000246002092680A4200D00120704741615F
:1009A000704701617047FEE708B50121442004F05B
:1009B000F9F81820ADF8000048208DF803006946CA
:1009C0000648FFF76BFF0120ADF8000028208DF8E6
:1009D000030069460248FFF761FF08BD00180140A7
:1009E000000801402DE9F041254C264F264D0126F7
:1009F00008B1267001E0207878B110212846FFF771
:100A0000C7FF88B108212846FFF7C2FF60B1012166
:100A10003846FFF7BDFF012806D010212846FFF712
:100A2000B7FF01281DD028E00A2004F0C1FF0020F4
:100A3000207010212846FFF7ABFF58B10821284647
:100A4000FFF7A6FF48B101213846FFF7A1FF0128B3
:100A500005D012E00120BDE8F0810220FBE7032071
:100A6000F9E708212846FFF793FF012805D1012166
:100A70003846FFF78DFF00B926700020EBE7000035
:100A8000700000200008014000180140C0F345112B
:100A9000C20AC00200EB4110104480B2704700004F
:100AA0002DE9F043174F0646002438887D884543DA
:100AB000B888A0F5D041043902D1B879012807D00F
:100AC0000021084603F09EFA03F08EFC0E4815E064
:100AD0000020B8714FF02A09A7F80A904FF02B08B0
:100AE000A7F80C80014603F08DFA0120B871A7F831
:100AF0000A80A7F80C90E7E70680641CAC42FBD3A1
:100B0000BDE8F083A80000200008006C2DE9F04F3C
:100B10004A492A232B24898845F2105A4FF4305B26
:100B20004FF4285E4FF448754FF0F00C49F241390C
:100B30004FF4A07745F210364FF4F07280B13F4881
:100B40004FF00108494580F806800780A0F802C0F0
:100B500001D0B1423ED12C2505814381848157E0EB
:100B600036484FF00008494580F80680A0F800C0DC
:100B7000478006D0A1F5D04CBCF1040C01D0B142A5
:100B80000CD12C2505814381A1F5D0438481043B00
:100B900001D0B14244D10780428041E0514507D1A4
:100BA000A0F808B0A0F80AE04FF42C5181810EE0C3
:100BB000A1F5C856633E06D0222101812021418142
:100BC000212181812CE02C210181448183810280BB
:100BD000458025E0A1F5D04CBCF1040C09D051456D
:100BE0000BD1A0F808B0A0F80AE04FF42C53838191
:100BF00021E02C250581448109E0A1F5C85CBCF108
:100C0000630C12D02223038121234381202383817B
:100C1000A1F5D043043B01D0B14201D1028047800D
:100C2000BDE8F04F002003F019B94FF02C0CA0F8EC
:100C300008C04381848105804280E9E7A800002044
:100C40002DE9FE4F0026A2EB000882465F1A701EB7
:100C500035468946B8F1000F02DD4FF0010102E090
:100C600003D14FF00001019102E0C8F100080190AA
:100C7000002F02DD4FF0010002E003D14FF0000031
:100C8000009002E0C7F1000700904046B84501DD42
:100C9000044600E03C46601C4FF0000B029015E05B
:100CA0001FFA89F11FFA8AF000F016F846443D4415
:100CB000A64202DD0199361B8A44A54202DD009955
:100CC0002D1B89440BF101001FFA80FB02998B4513
:100CD000E6DDBDE8FE8F000000B503F093F903F0F8
:100CE00083FB024802490088088000BD30000020D4
:100CF0000008006CF0B51C4615460E4607460B462C
:100D0000FFF79EFF3A46234631461046FFF798FF0D
:100D100023462A4619463846FFF792FF2A462346BD
:100D20003146BDE8F0401046FFF78ABF2DE9F04F8D
:100D3000DFF80C81934642460B46B8F804500C0A83
:100D4000DFF800A19189060A5289A5F513470AF137
:100D50000209413F18D0A5F5A647103F14D0B7F5BA
:100D600000771CD04746A5F5C85CBE793F883F1A7E
:100D70007F1EBCF1630C27D0A5F5D04CBCF1040C50
:100D80003AD0012E4AD04AE0AAF800204A46A9F8F3
:100D90000060C0B2A9F80000AAF800103AE0AAF872
:100DA0000020A9F80060521CAAF80020C0B2A9F8DF
:100DB0000000AAF80010A9F80040491CAAF8001089
:100DC000D8B2A9F8000033E006B9B8B2AAF80020FA
:100DD000050A4A46A9F80050C7B2A9F80070A9F858
:100DE0000050C0B2A9F80000AAF80010A9F800400D
:100DF000D8B2A9F800000DE0012E00D1B8B2AAF8CF
:100E00000020050A4A46A9F80050C0B2A9F800001F
:100E1000AAF800101480D8B2108009E0B8B20146D8
:100E2000104603F0EBFAB8F80C00194603F0E6FAA6
:100E3000B8F80810AAF80010A9F800B0BDE8F08FC3
:100E4000A8000020FE07006C2DE9F8431F4D1F4647
:100E50008046AB88089EA3F5D040043802D1A8791B
:100E6000012807D0A2EB0800401C85B20C46DFF831
:100E7000609028E02B880846991A0024AC713A4605
:100E80002A24A3EB08036C812B27491E5B1EAF812C
:100E900089B29BB20096FFF7D7FF0120A8716F813E
:100EA000AC81BDE8F8832146404603F0ABF803F07F
:100EB0009BFA0020494602E00E80401C80B2A84206
:100EC000FAD3641CA4B2BC42EDD9EAE7A800002022
:100ED0000008006C2DE9F04F01210E029FB0304652
:100EE00003F048FE01214FF4B47003F05BFE0127CC
:100EF000ADF83C704FF010088DF83F8003248DF85A
:100F00003E400FA9FE48FFF7C9FC4CF23370ADF824
:100F10003C0018258DF83F508DF83E400FA9F94848
:100F2000FFF7BCFC4FF68070ADF83C008DF83F50E9
:100F30008DF83E400FA9F448FFF7B0FC41F20100E4
:100F4000ADF83C008DF83F508DF83E400FA9EF48BA
:100F5000FFF7A4FC00200F21CDE918011A901B9087
:100F60001C901D901090CDE91104CDE91607149046
:100F700006211590CDE90010CDE9020813900490E8
:100F80003101CDE908010690059007908900CDE96F
:100F90000A010C9017A80D9010A80E906846FFF754
:100FA00005FC01210620FFF7F1FB322004F000FDD3
:100FB000002002F029FFD64DD64C49F24139A880D5
:100FC00046F6040A45F2103B45F210574FF6FF78FB
:100FD000FF2804D3404502D0B0F5134F70D1D32081
:100FE000208002F083FEA88002F080FEA88002F03C
:100FF0007DFE08EA00204146A88002F077FEAA881C
:101000001043A88048455BD0BF20208002F06EFED0
:10101000A88002F06BFEA88002F068FEA88002F0B3
:1010200065FE01EA0020A88002F060FEAA88104355
:10103000A880504544D0D420208002F057FEA880DC
:1010400002F054FEA88002F051FE01EA0020A880C0
:1010500002F04CFEAA881043A880584530D04FF4C7
:101060005A40208002F042FEA8804FF45B4020806E
:1010700002F03CFE01EA0020A8804FF45C40208092
:1010800002F034FEAA881043A880B0F5004F7DD04E
:10109000B84215D0A120208002F028FEA88002F0DE
:1010A00025FE01EA0020A88002F020FEA98808435E
:1010B000A0F5AE41A880613902D141F66310A88045
:1010C000A98895A0FFF7AAF8A888924DAD1C4845BD
:1010D0007ED1CF20208000202880C1202880302091
:1010E0002880ED2020806420288003202880122082
:1010F000288081202880E8202080852028801020DA
:1011000028807A202880CB202080392028802C201D
:101110002880002028803420288002202880F72082
:10112000208020202880EA2020800020288028801D
:10113000C02020801B202880C12020800120288002
:10114000C5202080302028802880C7202080B7201C
:10115000288036202080482028803A202080552072
:101160002880B1202080002028801A202880B620E6
:1011700020800A202880A2202880F22020800020C1
:101180002880262020800120288000E051E0E020F7
:1011900020800F2028802A202880282028800820CE
:1011A00028800E2028800820288054202880A9200C
:1011B0002880432028800A2028800F2028800020B3
:1011C0002880288028802880E1202080002000E0DE
:1011D00031E02880152028801720288007202880CB
:1011E00011202880062028802B2028805620288047
:1011F0003C20288005202880102028800F2028806F
:101200003F20288028800F2028802B20208000204D
:1012100028802880012028803F2028802A202080C4
:101220000020288028802880EF202880112020801E
:1012300084E0AF8044E7504576D11120208014200F
:1012400004F0B6FBD0202080072028804220288090
:101250001D202880D1202080002028801A2028806E
:1012600009202880D2202080012028802220288068
:10127000C0202080102028803B202880002028804B
:101280000220288011202880C5202080032028806B
:10129000C820208000202880252028802120288028
:1012A00005202880002028800A20288065202880AA
:1012B0002520288077202880502028800F20288013
:1012C00000202880F820208001202880FE20208017
:1012D00000202880022028802020208036202080A6
:1012E000082028803A202080552028802B2020802C
:1012F000002028802880012028803F20288014E0BA
:10130000000C014000140140001801400020014081
:10131000A8000020FE07006C204C43442049443ABA
:1013200025780D0A000000000EE02A202080002011
:101330002880288001202880DF202880782004F061
:1013400037FB292001F02DBC58457DD1ED202080B0
:1013500001202880FE202880EE202080DE202880AA
:1013600021202880F120208001202880DF2020807B
:1013700010202880C42020808F202880C620208034
:1013800000202880E220288028802880BF2020801C
:10139000AA202880B02020800D20288000202880CE
:1013A0000D202880002028801120288000202880FF
:1013B00019202880002028802120288000202880D3
:1013C0002D202880002028803D2028800020288093
:1013D0005D202880002028805D2028800020288033
:1013E000B120208080202880002028808B20288029
:1013F000002028809620288000202880B22020808D
:1014000000202880288002202880002028800320B7
:10141000288000202880B320208000202880288079
:10142000288028802880288028802880288028807C
:10143000288028802880288028802880288028806C
:1014400028802880288000E0FEE3288028802880EB
:10145000B42020808B20288000202880962028809F
:1014600000202880A120288000202880B52020800E
:101470000220288000202880032028800020288047
:101480000420288000202880B6202080002028808A
:101490002880B72020800020288028803F202880B6
:1014A000002028805E20288000202880642028805A
:1014B000002028808C20288000202880AC202880D4
:1014C00000202880DC2028800020288070202880B0
:1014D000002028809020288000202880EB20288071
:1014E00000202880DC20288000202880B820208050
:1014F0000020288028802880288028802880288034
:101500002880BA202080242028800020288028805D
:101510002880C1202080202028800020288054207E
:10152000288000202880FF20288000202880C220DA
:1015300020800A2028800020288004202880002085
:101540002880C32020803C202880002028803A204A
:1015500028800020288039202880002028803720FB
:101560002880002028803C202880002028803620E9
:1015700028800020288032202880002028802F20EA
:101580002880002028802C202880002028802920E6
:1015900028800020288026202880002028802420E1
:1015A00028800020288024202880002028802320D4
:1015B0002880002028803C20288000202880362099
:1015C00028800020288032202880002028802F209A
:1015D0002880002028802C20288000202880292096
:1015E0002880002028802620288000202880242091
:1015F0002880002028802420288000202880232084
:10160000288000202880C42020806220288000209C
:101610002880052028800020288084202880002021
:101620002880F02028800020288018202880002092
:101630002880A420288000202880182028800020CE
:10164000288050202880002028800C20288000201E
:1016500028801720288000202880952028800020BE
:101660002880F320288000202880E6202880002081
:101670002880C52020803220288000202880442017
:10168000288000202880652028800020288076205F
:101690002880002028808820288000202880C620DC
:1016A00020802020288000202880172028800020EB
:1016B00028800120288000202880C720208000204A
:1016C0002880288028802880C8202080002028802A
:1016D000288028802880C920208000202880288019
:1016E00028802880288028802880288028802880BA
:1016F000288028802880288028802880E02020805A
:1017000016202880002028801C2028800020288087
:101710002120288000202880362028800020288052
:101720004620288000202880522028800020288001
:1017300064202880002028807A20288000202880AB
:101740008B20288000202880992028800020288055
:10175000A820288000202880B92028800020288008
:10176000C420288000202880CA20288000202880CB
:10177000D220288000202880D9202880002028809E
:10178000E020288000202880F32028800020288066
:10179000E120208016202880002028801C2028801E
:1017A00000202880222028800020288036202880C1
:1017B0000020288045202880002028805220288072
:1017C0000020288064202880002028807A2028801B
:1017D000002028808B2028800020288099202880C5
:1017E00000202880A820288000202880B920288078
:1017F00000202880C420288000202880CA2028803B
:1018000000202880D220288000202880D82028800E
:1018100000202880E020288000202880F3202880D5
:1018200000202880E22020800520288000202880B9
:101830000B202880002028801B2028800020288062
:101840003420288000202880442028800020288000
:101850004F202880002028806120288000202880B8
:101860007920288000202880882028800020288057
:101870009720288000202880A6202880002028800B
:10188000B720288000202880C220288000202880BF
:10189000C720288000202880D12028800020288090
:1018A000D620288000202880DD2028800020288065
:1018B000F320288000202880E32020800520288035
:1018C000002028800A202880002028801C202880D2
:1018D0000020288033202880002028804420288071
:1018E0000020288050202880002028806220288026
:1018F00000202880782028800020288088202880C8
:10190000002028809720288000202880A62028807A
:1019100000202880B720288000202880C22028802E
:1019200000202880C720288000202880D1202880FF
:1019300000202880D520288000202880DD202880D5
:1019400000202880F320288000202880E4202080A8
:101950000120288000202880012028800020288065
:1019600002202880002028802A202880002028802B
:101970003C202880002028804B20288000202880C0
:101980005D20288000202880742028800020288066
:101990008420288000202880932028800020288010
:1019A000A220288000202880B320288000202880C2
:1019B000BE20288000202880C42028800020288085
:1019C000CD20288000202880D32028800020288057
:1019D000DD20288000202880F32028800020288017
:1019E000E520208000202880288028802880022070
:1019F00028800020288029202880002028803C2062
:101A00002880002028804B202880002028805D200E
:101A100028800020288074202880002028808420AE
:101A20002880002028809320288000202880A22061
:101A3000288000202880B320288000202880BE2015
:101A4000288000202880C420288000202880CD20E5
:101A5000288000202880D320288000202880DC20B7
:101A6000288000202880F320288000202880E6207D
:101A70002080112028800020288034202880002009
:101A8000288056202880002028807620288000206A
:101A90002880772028800020288066202880002049
:101AA00028808820288000202880992028800020F5
:101AB0002880BB20288000202880992028800020B2
:101AC000288066202880002028805520288000203B
:101AD000288055202880002028804520288000204C
:101AE000288043202880002028804420288000204F
:101AF0002880E72020803220288000202880552060
:101B000028800020288076202880002028806620D9
:101B100028800020288067202880002028806720D7
:101B20002880002028808720288000202880992075
:101B3000288000202880BB20288000202880992031
:101B400028800020288077202880002028804420BA
:101B500028800020288056202880002028802320EC
:101B600028800020288033202880002028804520DD
:101B7000288000202880E8202080002028802880DD
:101B80009920288000202880872028800020288015
:101B90008820288000202880772028800020288026
:101BA0006620288000202880882028800020288027
:101BB000AA20288000202880BB20288000202880A0
:101BC00099202880002028806620288000202880F6
:101BD000552028800020288055202880002028803B
:101BE000442028800020288044202880002028804D
:101BF0005520288000202880E9202080AA202880E5
:101C000000202880288028802080AA202880CF20BB
:101C10002080002028802880288028802880288014
:101C20002880288028802880288028802880288074
:101C3000288028802880F0202080002028805020C4
:101C400028800020288000E02CE028802880F320D5
:101C5000208000202880F920208006202880102065
:101C6000288029202880002028803A2020805520A4
:101C7000288011202080642003F09AFE29202080F3
:101C8000352020800020288051202080FF202880BF
:101C9000532020802C2028805520208082202880DE
:101CA0002C20FCE3B8427DD14FF4704355211846F7
:101CB00002F0A4FB4FF20105AA21284602F09EFB88
:101CC0006E1C5221304602F099FBAF1C08213846A9
:101CD00002F094FB4FF204090121484602F08EFB0A
:101CE0000D214FF4304002F089FB0D214BF2010031
:101CF00002F084FB0D214BF2020002F07FFB4FF457
:101D0000364A3421504602F079FB34214BF201600F
:101D100002F074FB34214BF2026002F06FFB4FF4CF
:101D2000314B0D21584602F069FB0D214BF2011099
:101D300002F064FB0D214BF2021002F05FFB342134
:101D40004FF4374002F05AFB34214BF2017002F09D
:101D500055FB34214BF2027002F050FB00214FF48E
:101D6000324002F04BFB00214BF2012002F046FB17
:101D700000214BF2022002F041FB24214FF43840B5
:101D800002F03CFB24214BF6010002F037FB24213A
:101D90004BF6020002F032FB01214FF43F4002F00B
:101DA0002DFB00E0FEE30F214FF4334002F026FB51
:101DB0000F214BF2013002F021FB0F214BF20230D8
:101DC00002F01CFB34214FF4394002F017FB3421A0
:101DD0004BF6011002F012FB34214BF6021002F018
:101DE0000DFB08214FF4354002F008FB08214BF2AF
:101DF000015002F003FB08214BF2025002F0FEFA00
:101E000003214FF4424002F0F9FA24214FF43A4002
:101E100002F0F4FA24214BF6012002F0EFFA24211B
:101E20004BF6022002F0EAFA00214FF43C4002F0A7
:101E3000E5FA78214BF6014002F0E0FA00214BF67A
:101E4000024002F0DBFA00214FF43D4002F0D6FAE6
:101E500078214BF6015002F0D1FA00214BF60250E6
:101E600002F0CCFA00214FF43E4002F0C7FA6421A0
:101E70004BF6016002F0C2FA00214FF4514002F02B
:101E8000BDFA33214DF2011002F0B8FA00214DF2F3
:101E9000021002F0B3FA34214DF2031002F0AEFA50
:101EA00000214DF2041002F0A9FA3A214DF205107A
:101EB00002F0A4FA00214DF2061002F09FFA4A2126
:101EC0004DF2071002F09AFA00214DF2081002F0CC
:101ED00095FA5C214DF2091002F090FA00214DF2C2
:101EE0000A1002F08BFA81214DF20B1002F086FAF3
:101EF00000214DF20C1002F081FAA6214DF20D10D6
:101F000002F07CFA00214DF20E1002F077FAE52182
:101F10004DF20F1002F072FA01214DF2101002F092
:101F20006DFA13214DF2111002F068FA01214DF201
:101F3000121002F063FA54214DF2131002F05EFA0F
:101F400001214DF2141002F059FA82214DF21510C0
:101F500002F054FA01214DF2161002F04FFACA2194
:101F60004DF2171002F04AFA02214DF2181002F059
:101F700045FA00214DF2191002F040FA02214DF20B
:101F80001A1002F03BFA01214DF21B1002F036FA52
:101F900002214DF21C1002F031FA34214DF21D10D5
:101FA00002F02CFA02214DF21E1002F027FA6721EE
:101FB0004DF21F1002F022FA02214DF2201002F021
:101FC0001DFA84214DF2211002F018FA02214DF27F
:101FD000221002F013FAA4214DF2231002F00EFA9F
:101FE00002214DF2241002F009FAB7214DF225101A
:101FF00002F004FA02214DF2261002F0FFF9CF217F
:102000004DF2271002F0FAF902214DF2281002F0E9
:10201000F5F9DE214DF2291002F0F0F902214DF21E
:102020002A1002F0EBF9F2214DF22B1002F0E6F942
:1020300002214DF22C1002F0E1F9FE214DF22D109B
:1020400002F0DCF903214DF22E1002F0D7F9102135
:102050004DF22F1002F0D2F903214DF2301002F0B0
:10206000CDF933214DF2311002F0C8F903214DF2C0
:10207000321002F0C3F96D214DF2331002F0BEF9B7
:1020800000214FF4524002F0B9F933214DF2012002
:1020900002F0B4F900214DF2022002F0AFF9342130
:1020A0004DF2032002F0AAF900214DF2042002F0C3
:1020B000A5F93A214DF2052002F0A0F900214DF2D8
:1020C000062002F09BF94A214DF2072002F096F912
:1020D00000214DF2082002F091F95C214DF2092017
:1020E00002F08CF900214DF20A2002F087F98121DB
:1020F0004DF20B2002F082F900214DF20C2002F08B
:102100007DF9A6214DF20D2002F078F900214DF263
:102110000E2002F073F9E5214DF20F2002F06EF966
:1021200001214DF2102002F069F913214DF2112026
:1021300002F064F901214DF2122002F05FF95421FE
:102140004DF2132002F05AF901214DF2142002F051
:1021500055F982214DF2152002F050F901214DF27E
:10216000162002F04BF9CA214DF2172002F046F971
:1021700002214DF2182002F041F900214DF2192000
:1021800002F03CF902214DF21A2002F037F9012148
:102190004DF21B2002F032F902214DF21C2002F018
:1021A0002DF934214DF21D2002F028F902214DF2C3
:1021B0001E2002F023F967214DF21F2002F01EF9C4
:1021C00002214DF2202002F019F984214DF2212044
:1021D00002F014F902214DF2222002F00FF9A4219D
:1021E0004DF2232002F00AF902214DF2242002F0E0
:1021F00005F9B7214DF2252002F000F902214DF238
:10220000262002F0FBF8CF214DF2272002F0F6F84D
:1022100002214DF2282002F0F1F8DE214DF22920B2
:1022200002F0ECF802214DF22A2002F0E7F8F22148
:102230004DF22B2002F0E2F802214DF22C2002F0A8
:10224000DDF8FE214DF22D2002F0D8F803214DF2E9
:102250002E2002F0D3F810214DF22F2002F0CEF8FC
:1022600003214DF2302002F0C9F833214DF2312024
:1022700002F0C4F803214DF2322002F0BFF86D21C4
:102280004DF2332002F0BAF800214FF4534002F02F
:10229000B5F833214DF2013002F0B0F800214DF2D3
:1022A000023002F0ABF834214DF2033002F0A6F810
:1022B00000214DF2043002F0A1F83A214DF2053030
:1022C00002F09CF800214DF2063002F097F84A2106
:1022D0004DF2073002F092F800214DF2083002F082
:1022E0008DF85C214DF2093002F088F800214DF2A2
:1022F0000A3002F083F881214DF20B3002F07EF8B3
:1023000000214DF20C3002F079F8A6214DF20D308B
:1023100002F074F800214DF20E3002F06FF8E52162
:102320004DF20F3002F06AF801214DF2103002F048
:1023300065F813214DF2113002F060F801214DF2E1
:10234000123002F05BF854214DF2133002F056F8CF
:1023500001214DF2143002F051F882214DF2153076
:1023600002F04CF801214DF2163002F047F8CA2174
:102370004DF2173002F042F802214DF2183002F00F
:102380003DF800214DF2193002F038F802214DF2EB
:102390001A3002F033F801214DF21B3002F02EF812
:1023A00002214DF21C3002F029F834214DF21D308B
:1023B00002F024F802214DF21E3002F01FF86721CE
:1023C0004DF21F3002F01AF802214DF2203002F0D7
:1023D00015F884214DF2213002F010F802214DF25F
:1023E000223002F00BF8A4214DF2233002F006F85F
:1023F00002214DF2243002F001F8B7214DF22530D0
:1024000001F0FCFF02214DF2263001F0F7FFCF2151
:102410004DF2273001F0F2FF02214DF2283001F099
:10242000EDFFDE214DF2293001F0E8FF02214DF2EF
:102430002A3001F0E3FFF2214DF22B3001F0DEFFF4
:1024400002214DF22C3001F0D9FFFE214DF22D304A
:1024500001F0D4FF03214DF22E3001F0CFFF102107
:102460004DF22F3001F0CAFF03214DF2303001F060
:10247000C5FF33214DF2313001F0C0FF03214DF291
:10248000323001F0BBFF6D214DF2333001F0B6FF69
:1024900000214FF4544001F0B1FF332100E080E30C
:1024A0004DF2014001F0AAFF00214DF2024001F07F
:1024B000A5FF34214DF2034001F0A0FF00214DF2B1
:1024C000044001F09BFF3A214DF2054001F096FFD8
:1024D00000214DF2064001F091FF4A214DF20740E4
:1024E00001F08CFF00214DF2084001F087FF5C21D4
:1024F0004DF2094001F082FF00214DF20A4001F047
:102500007DFF81214DF20B4001F078FF00214DF25B
:102510000C4001F073FFA6214DF20D4001F06EFF5B
:1025200000214DF20E4001F069FFE5214DF20F4010
:1025300001F064FF01214DF2104001F05FFF132113
:102540004DF2114001F05AFF01214DF2124001F00D
:1025500055FF54214DF2134001F050FF01214DF27F
:10256000144001F04BFF82214DF2154001F046FF6F
:1025700001214DF2164001F041FFCA214DF21740F2
:1025800001F03CFF02214DF2184001F037FF00211D
:102590004DF2194001F032FF02214DF21A4001F0D4
:1025A0002DFF00E0FFE201214DF21B4001F026FF6C
:1025B00002214DF21C4001F021FF34214DF21D405B
:1025C00001F01CFF02214DF21E4001F017FF6721B0
:1025D0004DF21F4001F012FF02214DF2204001F0A8
:1025E0000DFF84214DF2214001F008FF02214DF240
:1025F000224001F003FFA4214DF2234001F0FEFE32
:1026000002214DF2244001F0F9FEB7214DF22540A0
:1026100001F0F4FE02214DF2264001F0EFFECF2141
:102620004DF2274001F0EAFE02214DF2284001F070
:10263000E5FEDE214DF2294001F0E0FE02214DF2DF
:102640002A4001F0DBFEF2214DF22B4001F0D6FED4
:1026500002214DF22C4001F0D1FEFE214DF22D4021
:1026600001F0CCFE03214DF22E4001F0C7FE1021F7
:102670004DF22F4001F0C2FE03214DF2304001F037
:10268000BDFE33214DF2314001F0B8FE03214DF281
:10269000324001F0B3FE6D214DF2334001F0AEFE49
:1026A00000214FF4554001F0A9FE33214DF20150B5
:1026B00001F0A4FE00214DF2025001F09FFE3421F2
:1026C0004DF2035001F09AFE00214DF2045001F04A
:1026D00095FE3A214DF2055001F090FE00214DF299
:1026E000065001F08BFE4A214DF2075001F086FEA4
:1026F00000214DF2085001F081FE5C214DF209509D
:1027000001F07CFE00214DF20A5001F077FE81219C
:102710004DF20B5001F072FE00214DF20C5001F011
:102720006DFEA6214DF20D5001F068FE00214DF224
:102730000E5001F063FEE5214DF20F5001F05EFEF8
:1027400001214DF2105001F059FE13214DF21150AC
:1027500001F054FE01214DF2125001F04FFE5421C0
:102760004DF2135001F04AFE01214DF2145001F0D8
:1027700045FE82214DF2155001F040FE01214DF23F
:10278000165001F03BFECA214DF2175001F036FE03
:1027900002214DF2185001F031FE00214DF2195086
:1027A00001F02CFE02214DF21A5001F027FE01210A
:1027B0004DF21B5001F022FE02214DF21C5001F09F
:1027C0001DFE34214DF21D5001F018FE02214DF284
:1027D0001E5001F013FE67214DF21F5001F00EFE56
:1027E00002214DF2205001F009FE84214DF22150CA
:1027F00001F004FE02214DF2225001F0FFFDA42160
:102800004DF2235001F0FAFD02214DF2245001F067
:10281000F5FDB7214DF2255001F0F0FD02214DF2FA
:10282000265001F0EBFDCF214DF2275001F0E6FDDF
:1028300002214DF2285001F0E1FDDE214DF2295038
:1028400001F0DCFD02214DF22A5001F0D7FDF2210A
:102850004DF22B5001F0D2FD02214DF22C5001F02F
:10286000CDFDFE214DF22D5001F0C8FD03214DF2AA
:102870002E5001F0C3FD10214DF22F5001F0BEFD8E
:1028800003214DF2305001F0B9FD33214DF23150AA
:1028900001F0B4FD03214DF2325001F0AFFD6D2186
:1028A0004DF2335001F0AAFD00214FF4564001F0E3
:1028B000A5FD33214DF2016001F0A0FD00214DF294
:1028C000026001F09BFD34214DF2036001F096FDA2
:1028D00000214DF2046001F091FD3A214DF20560B6
:1028E00001F08CFD00214DF2066001F087FD4A21C8
:1028F0004DF2076001F082FD00214DF2086001F009
:102900007DFD5C214DF2096001F078FD00214DF262
:102910000A6001F073FD81214DF20B6001F06EFD44
:1029200000214DF20C6001F069FDA6214DF20D6011
:1029300001F064FD00214DF20E6001F05FFDE52124
:102940004DF20F6001F05AFD01214DF2106001F0CF
:1029500055FD13214DF2116001F050FD01214DF2A2
:10296000126001F04BFD54214DF2136001F046FD61
:1029700001214DF2146001F041FD82214DF21560FC
:1029800001F03CFD01214DF2166001F037FDCA2136
:102990004DF2176001F032FD02214DF2186001F096
:1029A0002DFD00214DF2196001F028FD02214DF2AC
:1029B0001A6001F023FD01214DF21B6001F01EFDA4
:1029C00002214DF21C6001F019FD34214DF21D6011
:1029D00001F014FD02214DF21E6001F00FFD672190
:1029E0004DF21F6001F00AFD02214DF2206001F05E
:1029F00005FD84214DF2216001F000FD02214DF220
:102A0000226001F0FBFCA4214DF2236001F0F6FCF2
:102A100002214DF2246001F0F1FCB7214DF2256056
:102A200001F0ECFC02214DF2266001F0E7FCCF2121
:102A30004DF2276001F0E2FC02214DF2286001F026
:102A4000DDFCDE214DF2296001F0D8FC02214DF2BF
:102A50002A6001F0D3FCF2214DF22B6001F0CEFC94
:102A600002214DF22C6001F0C9FCFE214DF22D60D7
:102A700001F0C4FC03214DF22E6001F0BFFC1021D7
:102A80004DF22F6001F0BAFC03214DF2306001F0ED
:102A9000B5FC33214DF2316001F0B0FC03214DF261
:102AA000326001F0ABFC6D214DF2336001F0A6FC09
:102AB0005521184601F0A2FCAA21284601F09EFCEF
:102AC0005221304601F09AFC0821384601F096FC6C
:102AD0000021484601F092FCCC21584601F08EFCC2
:102AE00000214BF2011001F089FC0521504601F054
:102AF00085FC70214FF4374001F080FC70214BF2CF
:102B0000017001F07BFC01214FF4384001F076FCAC
:102B100003214BF6010001F071FC03214BF602008A
:102B200001F06CFC03214BF6030001F067FC02216D
:102B30004FF43C4001F062FC00214BF6014001F0F3
:102B40005DFC00214BF6024001F058FCD0214FF40F
:102B5000494001F053FC02214CF6011001F04EFCFB
:102B600050214CF6021001F049FC50214CF60310A4
:102B700001F044FC50214CF6041001F03FFC002110
:102B80004FF4545001F03AFC55214FF4685001F0D5
:102B900035FC4FF488502080782002F023FF4FF45A
:102BA00024502080FEE3A0F513414FF4E06940F289
:102BB000022A4FF4274B253924D040F20777C91E4B
:102BC0007ED04FF4887B08317BD011397AD0A0F5C4
:102BD000A841083977D0A0F5A8514FF4407B0539BA
:102BE00072D0B1F5204170D0B1F580516ED0A0F512
:102BF0008A4131396BD0091F6AD0A0F5C8516339B9
:102C000067D0CFE747F6F001E52001F0F7FB31464A
:102C1000012001F0F3FB4946022001F0EFFB41F2F5
:102C20003001032001F0EAFB0021042001F0E6FB63
:102C30005146082001F0E2FB0021092001F0DEFBF3
:102C400000210A2001F0DAFB00210C2001F0D6FB64
:102C500000210D2001F0D2FB00210F2001F0CEFB5E
:102C60000021102001F0CAFB0721112001F0C6FB52
:102C70000021122001F0C2FB0021132001F0BEFB55
:102C80000021072001F0BAFB41F29061102001F011
:102C9000B5FB40F22721112001F0B0FB9D2112204D
:102CA00001F0ACFB4FF4C851132001F0A7FB252124
:102CB000292001F0A3FB0D212B2001F09FFB09E04F
:102CC00077E033E1D8E1AEE24AE3FDE3FDE3FDE383
:102CD000FDE3FDE30721302001F090FB40F20331DA
:102CE000312001F08BFB0321322001F087FB40F201
:102CF0000621352001F082FB0821362001F07EFB01
:102D000040F20641372001F079FB4FF44171382041
:102D100001F074FB0721392001F070FB40F20261E1
:102D20003C2001F06BFB08213D2001F067FB0021F6
:102D3000502001F063FBEF21512001F05FFB0021E7
:102D4000522001F05BFB40F23F11532001F056FB93
:102D50005946602001F052FB0121612001F04EFB39
:102D600000216A2001F04AFB0021802001F046FB8F
:102D70000021812001F042FB0021822001F03EFB76
:102D80000021832001F03AFB0021842001F036FB72
:102D90000021852001F032FB1021902001F02EFB54
:102DA0004FF4C061922001F029FB40F2331107205B
:102DB000FDE341F28F01EC2001F020FB41F23421D0
:102DC000EF2001F01BFB3146012001F017FB4946C3
:102DD000022001F013FB41F23001032001F00EFB51
:102DE0000021042001F00AFB5146082001F006FBF7
:102DF0000021092001F002FB00210A2001F0FEFA67
:102E000001210C2001F0FAFA00210D2001F0F6FA60
:102E100000210F2001F0F2FA0021102001F0EEFA5B
:102E20000721112001F0EAFA0021122001F0E6FA50
:102E30000021132001F0E2FA0121072001F0DEFA5F
:102E4000322002F0B5FD41F29041102001F0D6FA97
:102E500040F22721112001F0D1FA322002F0A8FD22
:102E60008A21122001F0CAFA322002F0A1FD4FF4AB
:102E7000D051132001F0C2FA0621292001F0BEFA38
:102E80000D212B2001F0BAFA322002F091FD002131
:102E9000202001F0B3FA0021212001F0AFFA322006
:102EA00002F086FD0021302001F0A8FA40F2046112
:102EB000312001F0A3FA40F20531322001F09EFAF0
:102EC0000021352001F09AFA40F60941362001F040
:102ED00095FA4FF40171372001F090FA40F2013178
:102EE000382001F08BFA3946392001F087FA0021A9
:102EF0003C2001F083FA40F60A213D2001F07EFAE1
:102F0000322002F055FD0021502001F077FAEF2128
:102F1000512001F073FA0021522001F06FFA40F2C3
:102F20003F11532001F06AFA594651E10021084649
:102F300001F064FA3146012001F060FA49460220AE
:102F400001F05CFA41F23001032001F057FA002150
:102F5000042001F053FA5146082001F04FFA0021F5
:102F6000092001F04BFA00210A2001F047FA012163
:102F70000C2001F043FA00210D2001F03FFA00215E
:102F80000F2001F03BFA322002F012FD40F2011155
:102F9000072001F033FA322002F00AFD4FF4865187
:102FA000102001F02BFA0721112001F027FA5B46CF
:102FB0005946122001F022FA4FF43061132001F03B
:102FC0001DFA0021292001F019FA44F210012B20EA
:102FD00001F014FA0021502001F010FAEF215120E5
:102FE00001F00CFA0021522001F008FA40F23F11E2
:102FF000532001F003FA4FF41C51602001F0FEF958
:103000000121612001F0FAF900216A2001F0F6F9AE
:103010000021802001F0F2F90021812001F0EEF979
:103020000021822001F0EAF90021832001F0E6F975
:103030000021842001F0E2F90021852001F0DEF971
:103040001021902001F0DAF90021922001F0D6F948
:103050000121932001F0D2F91946952001F0CEF913
:103060000021972001F0CAF90021982001F0C6F94B
:1030700040F27311072085E341F21401E72001F0CB
:10308000BDF93146012001F0B9F94FF40071022079
:1030900001F0B4F941F23801032001F0AFF95146D3
:1030A000082001F0ABF90021092001F0A7F9002167
:1030B0000A2001F0A3F900210C2001F09FF9002162
:1030C0000D2001F09BF900210F2001F097F900215C
:1030D000102001F093F90721112001F08FF9002150
:1030E000122001F08BF90021132001F087F9C8208C
:1030F00002F05EFC41F29061102001F07FF940F295
:103100002721112001F07AF9322002F051FC0C2124
:10311000122001F073F9322002F04AFC4FF40061F2
:10312000132001F06BF91121292001F067F90B211F
:103130002B2001F063F9322002F03AFC002120201C
:1031400001F05CF940F23F131946212001F056F9D5
:103150000021302001F052F94FF4837421463120D0
:1031600001F04CF90021322001F048F94FF40171CF
:10317000352001F043F941F20A61362001F03EF9B1
:103180003946372001F03AF92146382001F036F966
:103190003946392001F032F940F202413C2001F079
:1031A0002DF940F60F413D2001F028F90021502073
:1031B00001F024F9EF21512001F020F900215220E3
:1031C00001F01CF91946532001F018F94FF41C5175
:1031D000602001F013F90121612001F00FF90021B5
:1031E0006A2001F00BF90021802001F007F900218D
:1031F000812001F003F90021822001F0FFF8002175
:10320000832001F0FBF80021842001F0F7F8002171
:10321000852001F0F3F81021902001F0EFF84FF431
:10322000C0619220FDE33146012001F0E7F84946F4
:10323000022001F0E3F841F23001032001F0DEF852
:103240000021042001F0DAF840F20721082001F003
:10325000D5F80021092001F0D1F800210A2001F061
:10326000CDF800210C2001F0C9F800210D2001F05B
:10327000C5F800210F2001F0C1F8142002F098FBDE
:1032800041F2B061102001F0B9F80121112001F0E4
:10329000B5F80121172001F0B1F84FF49C7112200C
:1032A00001F0ACF84FF40061132001F0A7F80921F8
:1032B000292001F0A3F809212A2001F09FF800211C
:1032C000A42001F09BF80021502001F097F8EF2195
:1032D000512001F093F80021522001F08FF840F2C4
:1032E0003F11532001F08AF84FF41C51602001F087
:1032F00085F80121612001F081F800216A2001F0A8
:103300007DF80021802001F079F80021812001F072
:1033100075F80021822001F071F80021832001F06E
:103320006DF80021842001F069F80021852001F06A
:1033300065F81321902001F061F80021922001F03E
:103340005DF80321932001F059F85946952001F0CA
:1033500055F840F27311072001F050F8322010E1C7
:103360000021072001F04AF8322002F021FB4FF43F
:103370008E71122001F042F80121A42001F03EF8E4
:103380000F21082001F03AF808210A2001F036F850
:1033900008210D2001F032F83946302001F02EF8D6
:1033A000072100E06FE3312001F028F840F20361CB
:1033B000322001F023F84C464946332001F01EF834
:1033C0005146342001F01AF80221352001F016F898
:1033D00041F60F71362001F011F83946372001F01F
:1033E0000DF80021382001F009F80021392001F002
:1033F00005F839463A2001F001F800213B2000F0A1
:10340000FDFF07213C2000F0F9FF00213D2000F0E6
:10341000F5FF322002F0CCFA0121072000F0EEFF88
:103420000121172000F0EAFF322002F0C1FA4FF428
:10343000BD51102000F0E2FF40F21721112000F0F2
:10344000DDFF4FF48F71122000F0D8FF4FF4706150
:10345000132000F0D3FF00212A2000F0CFFF0A2123
:10346000292000F0CBFF4FF49F71122000F0C6FF1F
:103470000021502000F0C2FFEF21512000F0BEFFDC
:103480000021522000F0BAFF40F23F11532000F01B
:10349000B5FF4FF41C51602000F0B0FF0121612006
:1034A00000F0ACFF00216A2000F0A8FF002180207E
:1034B00000F0A4FF0021812000F0A0FF0021822065
:1034C00000F09CFF002104E05EE05CE125E2DBE22D
:1034D00082E3832000F092FF0021842000F08EFF21
:1034E0000021852000F08AFF1321902000F086FF44
:1034F0005946922000F082FF0521932000F07EFFC4
:103500000021952000F07AFF0021972000F076FF3F
:103510000021982000F072FF3146012000F06EFF7C
:103520002146022000F06AFF41F23801032000F03A
:1035300065FF0021042000F061FF00210C2000F055
:103540005DFF00210F2000F059FF0021202000F036
:1035500055FF0021212000F051FF2121072000F01C
:103560004DFF142002F024FA6121072000F046FFED
:10357000142002F01DFA40F27311072000F03EFF04
:10358000142002F015FAA1E30021084600F036FFEE
:103590000021084600F032FF0021084600F02EFF0F
:1035A0000021084600F02AFF0121A42000E0E5E008
:1035B00000F024FF142002F0FBF94FF41C542146C4
:1035C000602000F01BFF55465146082000F016FF12
:1035D0004FF40571302000F011FF43F215713120D6
:1035E00000F00CFF40F20461322000F007FF40F6CB
:1035F0001661332000F002FF42F21121342000F066
:10360000FDFE4FF4A851352000F0F8FE48F20751B6
:10361000362000F0F3FE41F20741372000F0EEFEC5
:1036200041F20341382000F0E9FE2021392000F06A
:10363000E5FE1A21902000F0E1FE0021102000F0AC
:10364000DDFE0721112000F0D9FE0021122000F03C
:10365000D5FE0021132000F0D1FE142002F0A8F9BD
:103660004FF4E661102000F0C9FE40F2371111203E
:1036700000F0C4FE142002F09BF94FF4DC7112201C
:1036800000F0BCFE142002F093F94FF47061132097
:1036900000F0B4FE80212A2000F0B0FE482129204D
:1036A00000F0ACFE142002F083F93146012000F056
:1036B000A5FE4946022000F0A1FE41F23801032098
:1036C00000F09CFE2946082000F098FE00210A2008
:1036D00000F094FE00210C2000F090FE00210D204F
:1036E00000F08CFE30210E2000F088FE00215020DA
:1036F00000F084FEEF21512000F080FE00215220D6
:1037000000F07CFE40F23F11532000F077FE21468E
:10371000602000F073FE0121612000F06FFE0021A7
:103720006A2000F06BFE1121902000F067FE4FF43C
:10373000C061922000F062FE40F20241932000F04E
:103740005DFE0221942000F059FE142002F030F9B1
:103750000121072000F052FE142002F029F9612116
:10376000072000F04BFE40F27311072000F046FEE8
:103770000021202000F042FE0021212000F03EFE2A
:10378000222100207DE10021084600F037FE0021C3
:10379000084600F033FE142002F00AF90021084622
:1037A00000F02CFE0021084600F028FE002108460B
:1037B00000F024FE0021084600F020FE0121A42094
:1037C00000F01CFE142002F0F3F84FF41C516020AE
:1037D00000F014FE40F60601082000F00FFE40F253
:1037E00003731946302000F009FE0121312000F05A
:1037F00005FE0421322000F001FE4FF481713320D8
:1038000000F0FCFD5C465946342000F0F7FD40F224
:103810000311352000F0F2FD1F21362000F0EEFDEF
:103820001946372000F0EAFD0121382000F0E6FDBE
:103830000421392000F0E2FD1521902000F0DEFD8A
:103840004FF48261102000F0D9FD40F24721112091
:1038500000F0D4FD4FF4DE71122000F0CFFD4FF4E4
:103860006061132000F0CAFD782002F0A1F8314613
:10387000012000F0C3FD4FF40071022000F0BEFDF6
:1038800041F23001032000F0B9FD08210A2000F0C8
:10389000B5FD00210C2000F0B1FD20210E2000F02C
:1038A000ADFD00210F2000F0A9FD0021202000F037
:1038B000A5FD0021212000F0A1FD3D212A2000F0DE
:1038C0009DFD142002F074F82D21292000F096FDB2
:1038D0000021502000F092FD4DF2EF01512000F048
:1038E0008DFD0021522000F089FD40F23F11532050
:1038F00000F084FD0021612000F080FD00216A209D
:1039000000F07CFD2146922000F078FD05219320F7
:1039100000F074FD3146FFF7ADBB0121002000F03F
:103920006DFD0A2002F044F841F22861102000F0F9
:1039300065FD0E21122000F061FD40F639211320B3
:1039400000F05CFD0A2002F033F84021112000F065
:1039500055FD5021152000F051FD0A2002F028F8F5
:103960001E21122000F04AFD0A2002F021F84FF437
:10397000B151102000F042FD42F63921132000F031
:103980003DFD0A2002F014F83146012000F036FD1A
:103990005946022000F032FD41F23801032000F0C8
:1039A0002DFD5146082000F029FD08210A2000F0D5
:1039B00025FD0021302000F021FD40F202413120A0
:1039C00000F01CFD4FF48371322000F017FD40F22F
:1039D0000351332000F012FD4FF48271342000F0C7
:1039E0000DFD40F20131352000F008FD394636204A
:1039F00000F004FD40F20531372000F0FFFC4FF4E9
:103A00000271382000F0FAFC40F60B71392000F00A
:103A1000F5FC0221412000F0F1FC4FF41C51602024
:103A200000E0D4E000F0EAFC0121612000F0E6FCB7
:103A30004FF40471902000F0E1FC4FF48571922066
:103A400000F0DCFC0421932000F0D8FC3146A020DB
:103A500000F0D4FC0121072000F0D0FC2121072038
:103A600000F0CCFC2321072000F0C8FC3321072004
:103A700000F0C4FC40F23311072000F0BFFC00212D
:103A8000A02000F0BBFC21E13021152000F0B6FCA5
:103A900010219A2000F0B2FC2021112000F0AEFC91
:103AA00043F22841102000F0A9FC0221122000F06E
:103AB000A5FC41F23801132000F0A0FC282001F001
:103AC00077FF1221084600F099FC282001F070FFD2
:103AD00043F22041102000F091FC43F23801132002
:103AE00000F08CFC462001F063FF0021302000F044
:103AF00085FC40F20241312000F080FC40F20731A9
:103B0000322000F07BFC4FF44171332000F076FC52
:103B10000421342000F072FC40F20141352000F015
:103B20006DFC3946362000F069FC40F20531372043
:103B300000F064FC4FF4C2631946382000F05EFCCC
:103B40001946392000F05AFC3146012000F056FC9D
:103B50005946022000F052FC41F23001032000F0EF
:103B60004DFC40F60801082000F048FC08210A201E
:103B700000F044FC4FF41C51602000F03FFC012198
:103B8000612000F03BFC4FF49F71902000F036FC68
:103B90003146922000F032FC3146932000F02EFC9A
:103BA0004FF44051A02000F029FC1021A32000F088
:103BB00025FC0121072000F021FC2121072000F035
:103BC0001DFC2321072000F019FC3321072000F001
:103BD00015FC40F233119EE6E22020801D20288053
:103BE0000220288004202880642001F0FBFEE020D1
:103BF0002080012028800A2001F0DAFEE0202080C9
:103C0000032028800C2001F0D3FE012020800A2010
:103C100001F0CEFEE62020802F202880FF20288083
:103C20002880B020208020202880002028800320A9
:103C3000288040F21F3028800120288040F2DF10C9
:103C4000288000202880B42020800420288040F292
:103C50001F402880002028802E20288000202880D7
:103C6000288028802880B6202080022028804FF4D9
:103C700003702880002028801720288015202880A5
:103C8000002028802880F020208003202880292000
:103C90002080D020208000202880BE202080052089
:103CA0002880FE202880012028800020288028806D
:103CB0002880B82020800320288001202880BA2076
:103CC000208001202880642000F0AAF80020FCF762
:103CD0001DFF05490120C1F880014046FCF7E0FEC8
:103CE0001FB0BDE8F08F000000802142034808B5F6
:103CF0000088ADF80000BDF8000008BD0008006CA9
:103D00002DE9F0413E4E002425463288824202D9F8
:103D100072888A4202D80020BDE8F08100F072F972
:103D2000B08849F24138374B41F6631745F21031FC
:103D300045F21052404508D0A0F5D04CBCF1040C1F
:103D400003D0884201D0B84202D14FF02E0C06E0D9
:103D5000904202D14FF4385C01E04FF0220CA3F8FE
:103D600000C0A0F51343203B03D10220401EC0B287
:103D7000FCD2FFF7BBFFB388BB42CDD00220401E70
:103D8000C0B2FCD2FFF7B2FF0746B088404503D06F
:103D9000884201D090420BD10220401EC0B2FCD21A
:103DA000FFF7A4FF0546F8B24FF6FF7303EA0024BD
:103DB000B088A0F51343253B1AD0A0F58A43353BC4
:103DC00016D01B1D14D0A0F53543053B10D0B3F51C
:103DD00080530DD0404503D0884201D0904209D194
:103DE000F80AC002A10A40EA411040EAD52093E750
:103DF000384691E73846BDE8F041FCF747BE000081
:103E0000A8000020FE07006C044910B508800520BA
:103E100001F0E8FDBDE81040FFF768BFFE07006C49
:103E20000C4A10B5BE211180941C0521218002F09E
:103E30001EF94FF06632084B02F02CF902F0EAF856
:103E4000208001202080FF202080002020802080F2
:103E500010BD0000FE07006C66660440F0B5674EBA
:103E600000233146B279898846F6040741F6631487
:103E7000012A01D02AB11DE0B9421BD0A14202D1D2
:103E800018E0A14216D1082814D2DFE800F0040699
:103E9000080A0C0E101206200CE007200AE004208D
:103EA00008E0052006E0012004E0002002E00320F5
:103EB00000E00220A1F5134C45F2103245F21055F6
:103EC000BCF1410C07D0B94205D0914203D0A942C0
:103ED00001D0A14275D1082812D2DFE800F0110408
:103EE00006080A0C0E1080230AE0402308E0C023D5
:103EF00006E0202304E0602302E0A02300E0E023AA
:103F0000A94202D14FF4585000E03620914205D02A
:103F1000A94203D0A14201D043F00803B94201D124
:103F200043F00203194600F069FAB288A2420AD0AF
:103F300098063088718802D5884202D303E088420F
:103F400001D9318070802E48811CAA42728902807A
:103F500021D100230B80531C038000230B80931C72
:103F6000038033885B1E1C0A0C80D21C0280DAB2EC
:103F70000A80B289028000230B80531C0380002337
:103F80000B80931C038073885B1E1C0A0C80D21C60
:103F90000280D8B212E000220A800A803288521EC3
:103FA000130A0B80D2B20A80B289028000200880F6
:103FB00008807088401E020A0A80C0B20880F0BDE6
:103FC000FFE7082812D2DFE800F0040608110A0C07
:103FD0000E1030230AE0102308E0202306E03823E7
:103FE00004E0282302E0182300E00823BDE8F040A5
:103FF000032043F4805100F001BA0000A800002023
:10400000FE07006C2DE9F04F4E4F0B463A46BD8837
:104010000C0ADFF834B191895289A5F513464FEAAD
:10402000102C0BF1020A413E1DD0A5F5A646103E0C
:1040300019D03E46BE4696F806903688A5F5D0477C
:10404000A6EB0008A8F10108043F17D0A5F5C85752
:10405000633F28D0A5F5AA477646103F51D0B9F165
:10406000010F63D064E0ABF800205246AAF800C00C
:10407000C0B2AAF80000ABF800100FE0B9F1010FD0
:1040800001D11FFA88F0ABF80020050A5246AAF8C1
:104090000050C0B2AAF80000ABF800101480D8B2EB
:1040A0001080BDE8F08FB9F1000F1BD0ABF80020F5
:1040B0005246AAF800C0C0B2AAF80000761E300A24
:1040C000AAF80000F0B21080ABF80010114614807E
:1040D000D8B21080BEF80200401E020A0A80C0B2A8
:1040E0000880DEE71FFA88F0ABF800200026524671
:1040F000AAF80060AAF80060060AAAF80060C0B238
:10410000E1E7ABF80020AAF800C0521CABF8002091
:10411000C0B2AAF80000ABF80010AAF80040491C91
:10412000ABF80010D8B2AAF80000BAE71FFA88F07E
:104130000146104600F062F9B089BDE8F04F19461B
:1041400000F05CB9A8000020FE07006C2DE9FC4FD0
:10415000044691464844401E86B2C818401E83B2A9
:10416000009004EB0900401EC0F3072EDFF850C199
:1041700000980D46C0F3072B6046BCF804204FEAB8
:10418000112881894089A2F513474FEA142A413F3B
:1041900010D0A2F5A647103F0CD0A2F5D047043F9F
:1041A00008D09CF8067041F6631C0197012F13D1CB
:1041B000624511D1434F3880B81CA0F800A0E2B28C
:1041C0000280A0F800E0F2B202803980A0F80080FE
:1041D000E9B2018059461CE0394F62453F881DD144
:1041E000A7EB0902121B374C009B92B29BB22080B6
:1041F000160AA01C0680D6B206804A44521E160A31
:104200000680D2B202802180A0F80080E9B201804D
:10421000190A0180D9B20180BDE8FC8FA2F5A04C3B
:10422000BCF5A26C1FD0019801283FD0B0462146B2
:104230002E4650204FF0510A4FF05209532700F0FC
:10424000DDF84146504600F0D9F83146484600F0C6
:10425000D5F81946384600F0D1F829462046BDE881
:10426000FC4FFFF7CFBE174A1080971CA7F800A09D
:1042700000F1010CA2F800C0E4B23C80841C148060
:10428000A7F800E0C01C1080F0B238801180A7F8B9
:104290000080481C1080E8B23880881C1080A7F885
:1042A00000B0C91C1180D8B23880B5E7B81B401ED9
:1042B00086B2381B9846401E294683B2B9E70000F3
:1042C000A8000020FE07006C2DE9F84F82461F462B
:1042D0000C468B46580700D0012000EBD700790828
:1042E0004843203AC0B202F0FF090026009041E0A6
:1042F0000C2F10D0102F12D0182F3ED1204909EBCF
:10430000C90001EB80004FF00008855D28060AD542
:104310001C4802880BE009EB49001B49F1E71B49E7
:1043200001EB0910EFE70A9828B9164842882146A0
:104330005046FCF7FBFC6806050E1548641CA4B249
:104340004088A04219D9A4EB0B00B84209D10AF168
:1043500001001FFA80FA0E485C46018851450CD9CD
:1043600006E008F1010000F0FF08B8F1080FCDD316
:10437000761CF6B200988642BAD3BDE8F88F0000EA
:10438000AC7200083000002048680008BC6C0008CF
:10439000A80000202DE9F84F044600F0FF0810198E
:1043A0000D46DDE90A761FFA80FA58191FFA80F9DE
:1043B0004FF0000B11E0544502D3E819444685B292
:1043C0004D450FD23B4629462046CDF800B0FFF7B9
:1043D0007BFF04EB570084B2761C3278A2F12000F8
:1043E0005E28E8D9BDE8F88F0248034900890880B3
:1043F00070470000A8000020FE07006C024A1080F1
:10440000901C018070470000FE07006C38B5012148
:10441000482000F0C7FB2024ADF8004010208DF8A4
:10442000030003200B4D8DF8020069462846FCF777
:1044300035FA20212846FCF7B4FAADF80040064CC6
:1044400069462046FCF72AFA20212046FCF7A9FA03
:1044500038BD0000000C014000180140FEE70000DC
:104460002DE9F04706464E484D494E4C07684D68C9
:10447000A7F15A003D2803D2A5F1780051286ED348
:10448000DFF82481DFF824915A2F16D23168A1F188
:104490001E003C391E290AD202F05AF8494601F0A2
:1044A00059FF414601F0F4FE02F016F804E05A28E4
:1044B00001DB1C2000E01920A061962F19D931687A
:1044C00001F11E0059311D290AD802F041F8494670
:1044D00001F040FF414602F03DF901F0FDFF07E029
:1044E00010F15A0F02DB6FF01B0001E06FF01800B3
:1044F000A0612F4FDFF8BC80782D21D27168A1F127
:10450000280046391E2906D202F022F8494601F059
:1045100021FF394609E0A0F13C0128290AD202F026
:1045200017F8494601F016FF414601F0B1FE01F0CF
:10453000D3FF04E0642801DB252000E02320606134
:10454000C82D25D9716801F1280063311D2907D8CC
:1045500001F0FEFF494601F0FDFE39460AE01AE08F
:1045600000F1630127290AD801F0F2FF494601F062
:10457000F1FE414602F0EEF801F0AEFF07E010F167
:10458000640F02DC6FF0240001E06FF02200606134
:104590000120BDE8F08700206061A0616060F8E75D
:1045A000B8000020000000200000B84100002041B9
:1045B000000004420000E0417047000030B50F23C6
:1045C000C27801780125F2B1144A126801F1E021A4
:1045D00002F4E062C2F5E062120AC2F10404D340C0
:1045E0004278A24084781C401443220181F80024C0
:1045F000007800F01F018D404009800000F1E020AC
:10460000C0F8005130BD01F01F008540480980000E
:1046100000F1E020C0F8805130BD00000CED00E05A
:104620000249084302490860704700000000FA058B
:104630000CED00E010B5001D092815D2DFE800F0F0
:104640001F1D12100E0C0A070500482100E038213A
:10465000062409E02821FBE71821F9E70821F7E7FC
:10466000082100E018210E249B2000F0ADFC21461B
:10467000BDE81040AB2000F0A7BC2821F3E73821AB
:10468000F1E710B5011D08290BD804014034E1B24F
:10469000A72000F099FCE1B2BDE81040A82000F08E
:1046A00093BC10BD011D082906D8202101EB800014
:1046B000C1B29C2000F088BC70470000F8B500240F
:1046C000012140F23D1000F06DFA4FF48075ADF815
:1046D000005048268DF803600320424F8DF80200F9
:1046E00069463846FCF7DAF829463846FCF759F9A6
:1046F0001820ADF800003C4F10258DF80350694696
:104700003846FCF7CBF818213846FCF74AF9FF2069
:10471000ADF800008DF8036069463448FCF7BEF838
:104720004020ADF80000324E8DF803506946304607
:10473000FCF7B4F840213046FCF733F94FF440461B
:10474000ADF800608DF803502A4D69462846FCF705
:10475000A5F831462846FCF724F901212648FCF744
:10476000EBF800F0FBFA8021122000F02DFC08B1DC
:104770000120F8BD322001F01BF91C2000F080FB65
:104780004FF6FF7505EA00261D2000F079FB40EA90
:104790000601A1F5FE40A23803D018A0FBF73EFDAC
:1047A000E6E70A2000F06CFB05EA00250B2000F08C
:1047B00067FB40EA0501A1F5EE40213804D012A0C4
:1047C000FBF72CFD0220F8BD124D05EB44004178AB
:1047D00015F8140000F0F8FB641CA4B2412CF4D3CB
:1047E0000020F8BD00080140000C0140001001400D
:1047F0000014014000200140000230004D49443ABD
:1048000025640D0A000000004849443A25640D0A59
:10481000000000000880000810B5062847D2DFE835
:1048200000F003061D27313CFF21132009E0FD2184
:10483000132000F0C9FB5A21012000F0C5FB5C21C8
:1048400029E000F0C1FB65210E2000F0BDFB002136
:104850002D2000F0B9FB00212E2024E0FD211320A3
:1048600000F0B2FB5821012000F0AEFB602112E005
:10487000FD21132000F0A8FB8421012000F0A4FBFF
:104880004C2108E0FD21132000F09EFB9621012021
:1048900000F09AFB40210220D3E7FF21132000F013
:1048A00093FBE5210E20BDE8104000F08DBB10BD4C
:1048B00010B5072840D2DFE800F0040609131D27D1
:1048C0003100062103E04621A62031E02621A62062
:1048D00000F07AFB8021602000F076FB802126E04A
:1048E0001E21A62000F070FB8021602000F06CFBF0
:1048F000C0211CE01E21A62000F066FB60210846B6
:1049000000F062FB602112E01E21A62000F05CFB9B
:10491000A021602000F058FB402108E01E21A620C5
:1049200000F052FB4021602000F04EFBA0216120EE
:10493000BDE8104000F048BB10BD2DE9F0470C4623
:1049400005464AB3C5F5207000EBD070C0F34F07A1
:10495000C4F5F07000EBD070C0F34F0606211220B2
:1049600000F032FB2321172000F02EFBA02118209D
:1049700000F02AFB0721192000F026FBF0211A2065
:1049800000F022FB0021322000F01EFBA021292094
:1049900000F01AFBF02128E0C5F5A07000EBD07004
:1049A000C0F34F07C4F1F00000EBD070C0F34F0626
:1049B0004621122000F008FB3F21172000F004FBE5
:1049C0005021182000F000FB0321192000F0FCFA10
:1049D00078211A2000F0F8FA0021322000F0F4FAD1
:1049E0005021292000F0F0FA78212C2000F0ECFA78
:1049F000172000F045FA00EB9700C1B2172000F035
:104A0000E3FAC5F387018A46182000F0DDFA192081
:104A100000F036FA00EB5600C1B2192000F0D4FACB
:104A2000C4F3470189461A2000F0CEFA322000F084
:104A300027FA8046F007400E07F0030104F0010654
:104A400040EA011040EA860105F00304214341EAEF
:104A50000801322000F0B8FA5146292000F0B4FADB
:104A600049462C2000F0B0FA2A2000F009FA44EA66
:104A7000080444EA8601BDE8F0472A2000F0A4BA01
:104A80002DE9F05FDFF8CCA09AF8000000285FD095
:104A90000420FFF7E3F9304C4FF4A07B5B462088FD
:104AA0006188F038A1F5A07101EBD17100EBD070F5
:104AB000C1F34F01C0F34F00F022FFF747FBA0887E
:104AC000A0F5C851633910D120886188F038A1F56C
:104AD000A07101EBD17100EBD070C1F34F01C0F3B5
:104AE0004F00F0235A46FFF731FBFFF77DFC1B48D0
:104AF0004FF00009C0F8B891194E10213160371FEE
:104B0000396031600122C0F8B8213960154DDFF8F5
:104B100058804A464FF6FF7400203160AB68396018
:104B200004EA03233160D5F808C039600CF0FF0CAB
:104B30004CEA030CA8F800C0401CF028EDD3521C2E
:104B40005A45E9D309488AF800900178491C017058
:104B5000BDE8F09F35000020A8000020000024429E
:104B6000140C0140001001400008006C36000020C9
:104B700070470000044A0029516901D0014300E058
:104B8000814351617047000000100240044A00292F
:104B9000D16901D0014300E08143D1617047000039
:104BA00000100240044A0029916901D0014300E04D
:104BB00081439161704700000010024030B5204AE7
:104BC0005168204B11F00C0103D0042901D00829B1
:104BD00001D0036012E05168536801F470114FF086
:104BE000020413F4803F04EB914102D053689B030D
:104BF00001D5154B00E0134B5943016051680F2359
:104C000003EA1111114B5C5C0168E140416054689A
:104C1000072505EA14241C5D21FA04F48460546815
:104C200005EAD4241B5DD940C1605268032303EA1E
:104C30009232064B1B1F9A5CB1FBF2F1016130BD51
:104C40000010024000127A0000093D009800002088
:104C50002DE9F043037842788078934203DD834264
:104C600005DD1D4604E0824201DD154600E00546F3
:104C7000934203DA834205DA9C4604E0824201DA79
:104C8000944600E0844605EB0C09C9EB09173F0187
:104C90004FF4FF7897FBF8F7A5EB0C06654501D1BB
:104CA000002037E09D420BD18242A2EB000000EBD6
:104CB00080004FEAC00090FBF6F414DAF03412E002
:104CC000954207D1C01A00EB8000C00090FBF6F4BB
:104CD000503408E0854206D1981A00EB8000C000ED
:104CE00090FBF6F4A03447B1C6EB0610782F4FEADC
:104CF000001204DC92FBF9F006E0002004E0A9F2C7
:104D0000FF10404292FBF0F0F02C01DDF02402E0B5
:104D1000002C00DA00240C70F02801DDF02002E005
:104D2000002800DA00204870F02F01DDF02702E0B3
:104D3000002F00DA00278F70BDE8F08310B514460D
:104D4000FEF7DEFFF82101EA10212170FC2101EAC3
:104D5000D0016170C000A07010BD000038B5012105
:104D60004FF49070FFF71EFF4FF40055ADF8005060
:104D700048208DF803000320114C8DF8020069468D
:104D80002046FBF78BFD29462046FBF70AFE08204C
:104D9000ADF8000010200B4D8DF803006946284641
:104DA000FBF77CFD08212846FBF7FBFD606820F43B
:104DB00070006060606840F44010606038BD0000C2
:104DC000002001400014014070B5322000F00AFEBE
:104DD0000C4D0120C5F8B4010B4EC6F88C013220F1
:104DE00005F5DA7506F5C67600F0FCFD00243460A2
:104DF000322000F0F7FD2C60BDE87040322000F05A
:104E0000F1BD000000002442008022422DE9F0475D
:104E1000184F0024786820F470007860786840F4B7
:104E200000007860DFF85090144E08254FF001081C
:104E3000A246322000F0D6FDC6F88C816006040E32
:104E4000D9F8340108B1641CE4B2322000F0CAFD84
:104E5000C6F88CA16D1E15F0FF05EAD1786820F424
:104E600070007860786840F4401078602046BDE8B3
:104E7000F087000000200140000024420080224210
:104E800010B5044600F022F8422000F055F86420E6
:104E900000F0A8FD204600F04FF8642000F0A2FDCD
:104EA00000F02EF8642000F09DFD00F00FF8432084
:104EB00000F042F8642000F095FDFFF7A7FF0446DC
:104EC000FFF782FF00F01CF8204610BD70B50A4EB7
:104ED0000120C6F8B401094DC5F88C01322005F552
:104EE000C67506F5DA7600F07DFD002434603220C8
:104EF00000F078FD2C6070BD00002442008022424A
:104F000070B50B4C0020C4F8B401322004F5DA74FB
:104F100000F068FD07480125C0F88C51322000F0F0
:104F200061FD2560BDE87040322000F05BBD0000EF
:104F300000002442008022422DE9F04700241F4E49
:104F40001F4F0546A0464FF00109280601D54846E7
:104F500000E04046C6F8B4016806050E322000F0B5
:104F600041FDC7F88C91322000F03CFDC7F88C81E0
:104F7000641CE4B2082CE8D3124C606820F4700082
:104F80006060606840F400006060322000F02AFD3C
:104F9000C7F88C91322000F025FDD6F8340100B11D
:104FA0000120C7F88C81616821F47001616061683B
:104FB00041F440116160BDE8F08700000000244228
:104FC000008022420020014070B50D4606460024B4
:104FD000FFF77CFF4220FFF7AFFF00B10124642000
:104FE00000F000FD3046FFF7A7FF00B10124642068
:104FF00000F0F8FC2846FFF79FFF00B10124FFF7FF
:105000007FFF204670BD70472DE9FF4F83B09B4660
:1050100005989F6881680320B1FBF0F50599C96880
:10502000B1FBF0FA3DE0DBF8006035E04FF000083E
:10503000444605EB0A091EE0AC4204D207EB5A00D5
:1050400081B2301904E0601B384481B206EB550090
:1050500080B26A46FFF772FE01A96846FFF7F8FDC5
:1050600001A80599FBF740FA08B908F10108B8EB67
:10507000D90F02D8641CA145DED8A1450BD10398F5
:1050800006EB55010160049807EB5A01016001200D
:1050900007B0BDE8F08F2E44DBF80400B042C5D85D
:1050A0005744DBF80C00B842BDD80020F0E7000000
:1050B0000CB50022264800920192016841F480312B
:1050C00001604FF4A063016801F40031019100997F
:1050D000491C0091019911B900999942F3D10168D5
:1050E000890333D5012101911A490A6842F010025F
:1050F0000A600A6822F003020A600A6842F00202AB
:105100000A604168416041684160416841F48061E2
:105110004160416821F47C114160416841F4E8112B
:105120004160016841F08071016001688901FCD52E
:10513000416821F003014160416841F00201416092
:105140004168C1F381010229FAD10CBD01920CBD65
:1051500000100240002002404FF0E02104280869BE
:1051600003D020F004000861704740F00400FAE723
:10517000704700000F4810B5016841F0010101605F
:1051800041680D4A1140416001680C4A11400160BC
:10519000016821F480210160416821F4FE01416031
:1051A0004FF41F018160FFF783FF05494FF0006056
:1051B000086010BD001002400000FFF8FFFFF6FE7F
:1051C00008ED00E0F0B50E46044689B00121032049
:1051D000FFF7DCFC01210520FFF7E4FC18208DF827
:1051E000230003258DF822504E20344FADF82000C7
:1051F00008A93846FBF752FB4E213846FBF7CFFB98
:10520000ADF81840ADF814600024ADF816407020D9
:10521000ADF8000002202A4F0126ADF80800ADF8D5
:105220001A40ADF8026005A9384600F0EDF969466C
:10523000384600F0CFF80821384600F00BF901217C
:10524000384600F0A8F8B70705A9384600F0DCF9A1
:105250006946384600F004F96946384600F04AF9D4
:105260006946384600F08AF90821384600F038F9D6
:105270000821384600F07CF90821384600F0B0F9E2
:105280000121384600F087F81D208DF810008DF8B8
:1052900011408DF812508DF8136004A8FFF78EF9B5
:1052A0001C208DF810008DF811408DF812508DF8EB
:1052B000136004A8FFF782F909B0F0BD00080140AF
:1052C0000004004010B501218C07204600F06DF865
:1052D000002805D02046BDE81040012100F058B854
:1052E00010BD000010B5074C0121204600F05DF80C
:1052F000002805D02046BDE81040012100F048B844
:1053000010BD00000004004010B5074C01212046EC
:1053100000F04BF810B10549002008702046BDE8A8
:105320001040012100F034B8001000403600002089
:105330007FB50D46044601211020FFF727FCADF88C
:1053400004400020ADF80050104CADF80600ADF858
:1053500002006946204600F057F90122412120460B
:1053600000F02FF80121204600F015F836208DF8C6
:105370000C0001208DF80D0003218DF80E108DF822
:105380000F0003A8FFF71AF97FBD000000100040CE
:10539000C943018270470029018802D041F0010110
:1053A00001E021F001010180704702460020138ACC
:1053B00092890B4202EA010202D0002A00D00120A9
:1053C0007047002A828901D00A4300E08A43828123
:1053D0007047000030B5028C22F001020284028C7A
:1053E0008388048B22F0020224F073050C882C437E
:1053F0000D8915434A882A43114DA8420BD0114DFF
:10540000A84208D0104DA84205D0104DA84202D0A5
:105410000F4DA8420DD122F008054A8923F44073AC
:105420002A4322F004058A882A438D891D43CB89AB
:105430002B4383800483C9888186028430BD0000A9
:10544000002C014000340140004001400044014074
:1054500000480140028B22F008020A430283704791
:1054600070B5028C22F010020284028C8388048BB7
:105470000D8824F4E6464FF6FF7404EA052535430B
:105480000E8922F0200204EA061616434A8804EA2E
:1054900002123243104EB04202D0104EB04215D12B
:1054A00022F080064A8923F4406304EA0212324360
:1054B00022F040068A8804EA021232438E8904EA06
:1054C00086061E43CB8904EA830333438380058326
:1054D000C9880187028470BD002C0140003401405E
:1054E000028B4FF6FF7322F4006203EA012111439D
:1054F0000183704770B5028C22F480720284028CA2
:105500008388848B0D8824F0730425430E894FF61D
:10551000FF7422F4007204EA062616434A8804EA5D
:1055200002223243104EB04202D0104EB04215D18A
:1055300022F400664A8923F4405304EA02223243EB
:1055400022F480668A8804EA022232438E8904EAC1
:1055500006161E43CB8904EA0313334383808583F5
:10556000C9888187028470BD002C0140003401404D
:10557000828B22F008020A438283704770B5028C46
:1055800022F480520284058C8288838B0C8823F459
:10559000E6464FF6FF7303EA0424344325F400562D
:1055A0000D8903EA053535434E8803EA06362E4356
:1055B000094DA84202D0094DA84205D122F48045E8
:1055C0008A8903EA82122A4382808483C988A0F8E8
:1055D0004010068470BD0000002C014000340140E2
:1055E000828B4FF6FF7322F4006203EA012111431C
:1055F0008183704781867047018770478187704734
:10560000A0F840107047000030B502881B4C1C4DBC
:10561000A0420DD0A8420BD0B0F1804F08D0194B5A
:10562000984205D0184B984202D0184B984203D1AB
:1056300022F070034A881A43154B984206D0154B46
:10564000984203D022F44073CA881A4302808A88A1
:1056500082850A880285A0420AD0A84208D00E4A54
:10566000904205D00D4A904202D00D4A904201D19D
:10567000097A01860121818230BD0000002C0140A1
:10568000003401400004004000080040000C0040CD
:105690000010004000140040004001400044014060
:1056A000004801402DE9FF5F3A4E83461746F068F7
:1056B0000D464FF001084FF0000A06F11009F0B94D
:1056C0004B46A3F108015A46081FFFF79DFC10B195
:1056D000C6F80C8013E04846F021C0E900A14FF461
:1056E000A0712C4BC9E902A11033A3F10801544663
:1056F0005A46081FFFF788FC08B1F46048E070685C
:105700000090B06800240190DDE900016B465A4624
:10571000FAF70AFF641C082CF6D3DDE900016B469A
:105720005A46FAF701FF80B3009870600198B060A4
:1057300000982860019868600298A8600398E86063
:10574000C6F80C8002990098A0EB5101C9F800102E
:10575000029A009901EB5201C9F80410039A0199C9
:10576000A1EB5201C9F80810019901EB5201C9F8E7
:105770000C100098C0F1780038600198C0F1A000CA
:105780007860012004B0BDE8F09FFFE7C6F80CA0E8
:105790000020F7E75000002070B5154C40F225516D
:1057A000204600F035F800280ED0204600F0BEF864
:1057B000104AC1B21088030406D444044FF0000319
:1057C00006D50A2901D0138070BD40F400400DE0D9
:1057D0000D2909D0C0F30D04074D401C80B2295596
:1057E0001080C728EFD870BD40F48040108070BD95
:1057F000003801408C000020C80000200029818969
:1058000002D041F4005101E021F400518181704740
:1058100070B501F01F0501260024C1F3421306FAFA
:1058200005F2012B0FD0022B0FD0838A4FEA1121F2
:105830000088134206FA01F600EA060001D000B122
:105840000124204670BD8389F0E7038AEEE710B596
:10585000C1F3421301F01F040121A140012B07D025
:10586000022B07D01430002A026805D00A4304E056
:105870000C30F8E71030F6E78A43026010BD0000F4
:1058800030B50446008A85B00D464CF6FF710840DD
:10589000E98801432182A0894EF6F3110840A988C6
:1058A0002A8911436A8902431143A181A08A4FF6D4
:1058B000FF410840A9890143A1826846FFF77EF9AC
:1058C0001948844201D1039800E00298A189090493
:1058D00000EBC00101EB0010296801D5490000E090
:1058E0008900B0FBF1F06422B0FBF2F109010B0971
:1058F0006FF018056B4300EB8300A3891D044FF084
:10590000320306D503EBC000B0FBF2F000F0070055
:1059100005E003EB0010B0FBF2F000F00F000843CD
:10592000208105B030BD0000003801408088C0F300
:1059300008007047FEE7000038B501218020FFF71E
:1059400031F94FF2F004ADF8004010208DF803005B
:105950000320064D8DF8020069462846FAF79EFF9F
:1059600021462846FBF71BF838BD0000001C01400B
:105970007047000010B56FF00400FFF7EDFB094819
:1059800009490068B0FBF1F00849C0B200EB4002E1
:105990000870C2EBC0104FF6FF7202EAC0004880E8
:1059A00010BD00001C00002000127A0088000020BA
:1059B0000B49498848434FF0E021486100238B613F
:1059C000086940F0010008610869C20701D0C003FE
:1059D000FAD5086920F0010008618B61704700006A
:1059E000880000200B49097848434FF0E0214861C6
:1059F00000238B61086940F0010008610869C20753
:105A000001D0C003FAD5086920F0010008618B615C
:105A1000704700008800002004490A885206FCD51F
:105A2000024AC1B2121D11807047000000380140C7
:105A3000A14886B04FF0000BD0E90010CDE902106C
:105A4000D8465F465E46CDF810B0FFF793FF4FF49F
:105A5000A060FEF7E5FD4FF4E13000F08BFAFBF7B4
:105A600039FA0120FBF752F8FAF79EFFFEF7CEFC59
:105A700040F2CF216320FFF7A5FBFFF75DFF102465
:105A80008EA0CDE900402346C82214211E20FEF737
:105A900081FC8FA0CDE900401023C82228211E20C0
:105AA000FEF778FC8DA0CDE900401023C8223C21F0
:105AB0001E20FEF76FFC8DA0CDE900401023C82208
:105AC00050211E20FEF766FC8BA0CDE9004010237C
:105AD000C82264211E20FEF75DFC8AA0CDE90040AB
